:020000040800F2
:1000000000200020A5220008490700084B0700082F
:1000100000000000000000000000000000000000E0
:100020000000000000000000000000004D07000874
:1000300000000000000000004F0700085107000802
:10004000F5220008F5220008F5220008F522000834
:10005000F5220008F5220008F5220008F522000824
:1000600000000000F5220008F5220008F522000833
:10007000F5220008F522000800000000F522000823
:100080000000000000000000000000000000000070
:10009000F522000800000000F5220008F522000803
:1000A00000000000F5220008000000000000000031
:1000B000F5220008F5220008000000000000000002
:1000C0000023C25C0133002AFBD1581E7047000098
:1000D00003B47146490840004900095E49008E4456
:1000E00003BC7047002934D00123002210B4884299
:1000F0002CD301242407A14204D2814202D2090157
:100100001B01F8E7E400A14204D2814202D2490077
:100110005B00F8E7884201D3401A1A434C08A0421A
:1001200002D3001B5C0822438C08A04202D3001BB0
:100130009C082243CC08A04202D3001BDC082243C7
:10014000002803D01B0901D00909E3E7100010BC07
:10015000704701B5002000F00BF802BD0029F8D06F
:1001600003B5FFF7C1FF0EBC4243891A1847C046CA
:100170007047C046002B11D1002A0FD1002900D1B1
:10018000002802D00021C943080007B4024802A198
:100190004018029003BDC046D9FFFFFF03B4684674
:1001A00001B5029802F07CFD019B9E4602B00CBC9A
:1001B0007047C046D0400B00D1409C46203AD34007
:1001C00018435242634693401843704791400300DE
:1001D00090409C46203A9340194352426346D34094
:1001E0001943704710B5002903D100F007F82030FB
:1001F00002E0080000F002F810BDC0461C210123F7
:100200001B04984201D3000C10391B0A984201D3F9
:10021000000A08391B09984201D30009043902A2D7
:10022000105C40187047C04604030202010101013E
:10023000000000000000000010B5064C2378002BE1
:1002400007D1054B002B02D0044800E000BF01237A
:10025000237010BD5C00002000000000802D00080D
:10026000044B10B5002B03D00349044800E000BF45
:1002700010BDC0460000000060000020802D000876
:1002800070B588B01422002103A802F055F8214B64
:10029000D96A04221143D962D96A0A400092009AAD
:1002A000DA6A01263243DA62DA6A32400192019A4E
:1002B000DA6A02242243DA62DB6A23400293029B59
:1002C000A025ED0501220221280000F0C4FD002236
:1002D0000421280000F0BFFD0623039304960026A6
:1002E0000596069403A9280000F0F0FC81230393EF
:1002F0000496059403A9084800F0E8FC80235B01FC
:1003000003930496059403A9280000F0DFFC08B0CD
:1003100070BDC046001002400004005010B5022815
:100320001ED00BD8002813D0012806D1FA2310497B
:1003300010485B000C2201F09EFE10BD0328FCD18A
:10034000FA230D490B485B000C2201F094FEF4E700
:10035000FA230A4907485B000B2201F08CFEECE708
:10036000FA23074903485B000B2201F084FEE4E70F
:10037000982D000878000020BC2D0008A42D00084E
:10038000B02D000870B504000D00A026F60500226F
:100390000421300000F05FFD2900200000F0DBFBAD
:1003A00001220421300000F056FD052000F028FC59
:1003B00000F064FB0128FBD19F3000220421C0051E
:1003C00000F049FD70BD000070B50C4E01213000F9
:1003D00000F03AFD04008021A0204901C00500F092
:1003E00033FD05008021300000F02EFDE4012D01D9
:1003F0002C4364B22043C0B270BDC046000400501C
:1004000072B6FEE710B50B480B4B0360E1235B02AD
:10041000436000238360C36003610C2242618361F7
:10042000C3610362436201F007FF002800D110BDE1
:10043000FFF7E6FF780000200044004010B50E48AA
:100440000E4B036082235B00436000238360C36024
:1004500003614361802292008261F93AFF3AC261EE
:100460000362436283620733C36201F06BFA0028C0
:1004700000D110BDFFF7C4FF000100200030014093
:1004800000B599B0342200210BA801F055FF1422C9
:10049000002106A801F050FF18220021684601F053
:1004A0004BFF1A490A681A4B1A4080231B01134359
:1004B0000B6010230B930F3B119300231293A02288
:1004C0001202139214930BA800F024FD002817D1F8
:1004D0000F23069300230793089309930A9300219F
:1004E00006A800F0A5FF00280CD1022300930023EA
:1004F0000293684601F0AEF8002805D119B000BD9E
:10050000FFF77EFFFFF77CFFFFF77AFF00700040E8
:10051000FFE7FFFF10B586B000F04CFBFFF7B0FF20
:10052000FFF7AEFEFFF76EFFFFF788FF404B1A683C
:1005300004921A7904AB1A71642000F061FB00F098
:10054000BCFAFA20800000F05BFB0AE0FA2339498C
:1005500039485B000A2201F08EFDFA20800000F08D
:100560004FFB00F097F90028F0D0FA2464003349DB
:1005700031482300082201F07EFD002000F0BFF981
:10058000002000F0F9F9002000F046FA202000F0E9
:1005900051FA052000F000FA04A9062000F004FA40
:1005A00004A9002000F000FA0021002000F0EAF980
:1005B000082000F0D1F9002000F0B1F9072000F088
:1005C00047FA022000F088F9200000F019FB00F043
:1005D0005DFA6B460022DA71194800F011FBFFF753
:1005E000F3FE6B46D8711749134C64230D2220008B
:1005F00001F041FD6B46DA79134902A801F07CFE57
:1006000002A8FFF75DFD82B2642302A9200001F079
:1006100032FD01216B46D81DFFF7B4FE00F02EFA23
:10062000FFF77CFEFA20400000F0EAFAD7E7C04668
:10063000F42D0008C82D000878000020D42D0008F3
:10064000B80B0000DC2D0008EC2D0008054B5A6BA0
:1006500001210A435A63996B802252050A439A6327
:100660007047C0460010024010B586B00400142246
:10067000002101A801F060FE22680F4B9A4201D0D0
:1006800006B010BD0D4B596B802252010A435A63CC
:10069000D96A01221143D962DB6A1A400092009B99
:1006A000E0230193DE3B029301330493A02001A9D0
:1006B000C00500F00BFBE3E70030014000100240F2
:1006C00030B589B004001422002103A801F034FEE3
:1006D00022681A4B9A4201D009B030BD184B996B71
:1006E000802292020A439A63D96A01221143D96295
:1006F000D96A0A400192019ADA6A02242243DA6234
:10070000DB6A23400293029B80231B020393049421
:100710000325069504230793A02003A9C00500F034
:10072000D5FA402303930494002305930695079379
:1007300003A9044800F0CAFACEE7C04600440040CE
:100740000010024000040050FEE7FEE770477047CB
:1007500010B500F043FA10BD7047000000B587B037
:100760000F21694408700948FA23DB000093012334
:1007700017226A4401F045F9002804D117236B447D
:10078000187807B000BDFFF73BFEF7E70001002037
:1007900070B504000D00A02000220221C00500F069
:1007A0005AFB1F2C10D81F20204020231843C0B212
:1007B000FFF7D4FF2800FFF7D1FFA020012202217C
:1007C000C00500F048FB70BD2000FFF7C7FF230005
:1007D0001F33DBB2022BF0D9FF2CEED02800FFF73D
:1007E000BDFFEAE7F8B504000E001500A0200022C6
:1007F0000221C00500F02FFB2000FFF7AFFF05E04E
:10080000771C3078FFF7AAFF25003E006C1EE4B28B
:10081000002DF5D1A02001220221C00500F01BFB14
:10082000F8BDF8B504000E001500A020002202213A
:10083000C00500F010FB2000FFF790FF06E0771CDA
:10084000FF20FFF78BFF307025003E006C1EE4B2E6
:10085000002DF4D1A02001220221C00500F0FBFAF6
:10086000F8BD70B50400A025ED0500220221280086
:1008700000F0F1FA1F202040FFF770FFFF20FFF784
:100880006DFF040001220221280000F0E4FA20009C
:1008900070BD000010B582B00E4905220C0030205A
:1008A000FFF7A0FF052269461020FFF7BAFF2100DD
:1008B0000023042B09D86A46D05C4C1C0A7890426D
:1008C00006D10133DBB22100F3E7012002B010BDF5
:1008D0000020FBE7FC2D000810B504000020FFF706
:1008E000C0FF0100022C06D002239943C9B20020A8
:1008F000FFF74EFF10BD02231943C9B2F7E710B549
:1009000004000020FFF7ADFF012301009943C9B2A5
:100910000120204001430020FFF73AFF10BD10B531
:1009200004001D20FFF79DFF002C0AD0042318436C
:10093000C1B21D20FFF72CFF1F211C20FFF728FF4D
:1009400010BD04239843C1B21D20FFF721FF0021F1
:100950001C20FFF71DFFF3E710B504000020FFF790
:1009600080FF0C2301009943C9B20C2020400143B1
:100970000020FFF70DFF10BD10B501000520FFF7A7
:1009800007FF10BD10B50F230B4000010343D9B280
:100990000420FFF7FDFE10BD10B50238C1B20320E0
:1009A000FFF7F6FE10BD000070B506000D0005282B
:1009B00004D8022827D2012824D801E0062821D112
:1009C0000320FFF74EFF0130C4B22D19A0200022F2
:1009D0000221C00500F03FFA0E4B985D202318431A
:1009E000C0B2FFF7BBFE2878013DFFF7B7FE23003A
:1009F000013CE4B2002BF6D1A02001220221C00567
:100A000000F029FA70BD034B185C0978FFF7C0FEAF
:100A1000F8E7C046282E000810B504000620FFF7AE
:100A200020FF062301009943C9B221430620FFF7A6
:100A3000AFFE10BD10B504000620FFF712FF2823FB
:100A400001009943C9B221430620FFF7A1FE10BD62
:100A500010B50400052804D900210120FFF798FEF5
:100A600010BD0120FFF7FDFE0123A340DB4359B277
:100A70000140C9B20120FFF78BFEF1E710B5172046
:100A8000FFF7EFFE03110320184010BD10B5FF2142
:100A9000E120FFF77DFE10BD10B5FF21E220FFF73A
:100AA00077FE10BD10B50720FFF7DBFE702318435B
:100AB000C1B20720FFF76CFE10BD10B50821002061
:100AC000FFF766FE3F210120FFF762FE03210220AF
:100AD000FFF75EFE03210320FFF75AFE03210420E7
:100AE000FFF756FE02210520FFF752FE0E210620D9
:100AF000FFF74EFE0E210720FFF74AFE00211120CE
:100B0000FFF746FE00211220FFF742FE00211320CE
:100B1000FFF73EFE00211420FFF73AFE00211520CA
:100B2000FFF736FE00211620FFF732FE00211C20C1
:100B3000FFF72EFE00211D20FFF72AFEFFF7ACFF76
:100B4000FFF7A4FFFFF7AEFFA02001220221C0059E
:100B500000F081F910BD10B50A000100A020FFF7D8
:100B600041FE10BD10B504000F4B1978FA2080002B
:100B7000FFF7B8FA01000D4B1868FFF7B3FA00F061
:100B8000A1F800280DD1032C01D901200AE0013081
:100B900000222100404200F091F8054B1C6000202B
:100BA00000E0012010BDC04604000020000000202D
:100BB0000800002010B5084A136840210B43136059
:100BC0000320FFF7CFFF041E02D00124200010BD38
:100BD000FFF73CFDFAE7C04600200240034A1168D7
:100BE000034B1B785B1813607047C0465801002008
:100BF00004000020014B18687047C04658010020CF
:100C000070B50400FFF7F6FF0500631C02D0044B2B
:100C10001B78E418FFF7EEFF401BA042FAD370BD2B
:100C20000400002070B5002811DB8308134DC03389
:100C30009B005C5903221040C000FC321600864025
:100C4000B44389010A40824022435A5170BD0F23A8
:100C50000340083B9B0806339B00094A94466344C3
:100C60005C6803221040C000FC3215008540AC4394
:100C700089010A40824022435A60E7E700E100E030
:100C800000ED00E0013880235B0498420FD2094A4E
:100C900050600948036A1B021B0AC02109060B4366
:100CA0000362002393600733136000207047012024
:100CB000FCE7C04610E000E000ED00E010B5FFF7F3
:100CC000B1FF10BD10B5FFF7DDFF10BDF0B500237B
:100CD00056E086685F000324BC40A643CC68BC4055
:100CE00034438460446894434E683609012232409C
:100CF0009A402243426053E0DE080836B600375877
:100D000005321A4092000F249440A7430C69944086
:100D100022003A43325056E0052600E00026A64065
:100D200034003C4302329200414E9451414A97684C
:100D3000EA433E00AE434C68E40201D53E002E4338
:100D40003C4CA660E7683E0016404C68A40201D502
:100D50003E002E43374CE66067683E0016404C6804
:100D6000A40301D53E002E43324C66602668324013
:100D70004C68E40301D52A0032432E4C2260013333
:100D80000C682200DA4052D001229A40250015401A
:100D90001442F4D04E6803243440013C012C98D90D
:100DA0004C6803222240032A08D0C4685E00032254
:100DB000B24094438A68B2402243C2604C68032226
:100DC0002240022A98D004685E0003221700B74030
:100DD000BC434F683A40B240224302604C68C02294
:100DE00092021442CBD0144C626B012632436263F0
:100DF0009A08941CA4000E4EA75903241C40A4007A
:100E00000F26A640B743A026F605B04286D00B4E6B
:100E1000B04208D00A4EB04207D00A4EB04200D1CC
:100E20007AE706267BE7012679E7022677E7F0BD19
:100E30000000014000040140001002400004005086
:100E400000080050001C005003690B4201D0012033
:100E500070470020FCE7002A01D081617047816261
:100E6000FCE7000010B5264BDA680C231340082B72
:100E700042D00C2B07D0042B34D1214B1B68DB064E
:100E80003CD5204837E0910C0F230B401E49C85C2D
:100E9000920D03231A40541C194BDB68DB0309D560
:100EA0001A4A0023002101F0D9FE22000023FFF797
:100EB00061F920E0124B1B68DB0609D5114A0023BB
:100EC000002101F0CBFE22000023FFF753F912E0CE
:100ED0000F4A0023002101F0C1FE22000023FFF78A
:100EE00049F908E0064B5A68520B072313400133B7
:100EF00080200002984010BD0448FCE70448FAE74F
:100F00000010024000093D00042E000800127A0083
:100F10000024F400F0B583B0041E00D165E2C54B97
:100F2000DA680C251540DE6880235B021E400368EA
:100F3000DB0736D5082D2CD00C2D28D063688022F5
:100F40005202934255D0A022D202934258D0B94BBC
:100F50001A68B9490A401A601A68802149020A4091
:100F60000192019A1A68B5490A401A606368002B19
:100F700052D0FFF73FFE0700AE4B1B689B0310D417
:100F8000FFF738FEC01B6428F6D903202EE2002E9E
:100F9000D4D0A84B1B689B0303D56368002B00D1FA
:100FA00026E223689B076DD5E3689A0605D5A1481C
:100FB000026820210A4302608B43042D3CD00C2D93
:100FC00038D0002B00D1B0E09A490A68092082434A
:100FD00013430B60FFF70EFE0600964B1B685B0782
:100FE00000D599E0FFF706FE801B0228F5D9032003
:100FF000FCE1904A116880235B020B431360B5E764
:101000008C4B19688022D2020A431A601968802228
:1010100052020A431A60A9E7FFF7ECFD0700854B6F
:101020001B689B03BDD5FFF7E5FDC01B6428F6D9FF
:101030000320DBE1002EC4D17E4A1268520702D59C
:10104000002B00D1D6E17B4E72687D490A402169B0
:1010500009020A437260326809218A4313433360EC
:10106000FFF700FFF26812090F231340754AD35CA3
:10107000D840754B1860754B1868FFF773FD002852
:1010800000D0B3E12368DB062DD5002D60D1694B7C
:101090001B689B0503D5A369002B00D1ACE1654A11
:1010A00053686B490B40216A0B43536053681B0222
:1010B0001B0AE16909060B435360216A490B0131A0
:1010C00080231B028B40D16809090F220A405D4929
:1010D0008A5CD3405C4A13605C4B1868FFF742FDA2
:1010E000002800D082E123681B077DD56369002BAF
:1010F00067D0504A136D01210B431365FFF77AFD4A
:1011000006004C4B1B6D9B076ED4FFF773FD801BD5
:101110000228F6D9032069E146494B68484A134042
:101120002269120213434B60ACE7424A1368012163
:101130008B431360FFF75EFD06003E4B1B685B07A9
:10114000A0D5FFF757FD801B0228F6D903204DE1FB
:10115000A369002B22D0374A116880235B000B4320
:101160001360FFF747FD0600324B1B689B0506D452
:10117000FFF740FD801B0228F6D9032036E12D4AF7
:10118000536833490B40216A0B43536053681B0279
:101190001B0AE16909060B435360A4E7254A13685B
:1011A0002C490B401360FFF725FD0600214B1B68FF
:1011B0009B0598D5FFF71EFD801B0228F6D903205A
:1011C00014E11C4A136D01218B431365FFF712FDD7
:1011D0000600184B1B6D9B0706D5FFF70BFD801B08
:1011E0000228F6D9032001E123685B0700D48EE0D2
:1011F000104B9B6BDB001BD40E4A916B80235B056D
:101200000B4393630126144B1B68DB0528D5A368A9
:1012100080225200934237D0002B4DD1054B1A6DDE
:101220000C490A401A651A6D0C490A401A6531E0EA
:101230000026E8E700100240FFFFFEFFFFFFFBFF74
:10124000FFE0FFFF182E000800000020080000202B
:10125000FF1FFFFFFFFEFFFF00700040FFFBFFFFCF
:101260006B4A116880235B000B431360FFF7C2FCDD
:101270000700674B1B68DB05C9D4FFF7BBFCC01B2D
:101280006428F6D90320B1E0624A116D80235B0027
:101290000B431365A368002B28D0FFF7ABFC0700B6
:1012A0005C4B1B6D9B0530D4FFF7A4FCC01B5A4B55
:1012B0009842F5D9032099E0A022D200934209D0A8
:1012C000544B1A6D55490A401A651A6D54490A4023
:1012D0001A65DFE74F4B196D013AFF3A0A431A6569
:1012E000196D802252000A431A65D3E7FFF782FC8A
:1012F0000700484B1B6D9B0507D5FFF77BFCC01B08
:10130000454B9842F5D9032070E0012E1AD0636A4C
:10131000002B00D172E00C2D4FD0022B18D03D4A8B
:10132000136840490B401360FFF764FC0400394B1D
:101330001B689B013FD5FFF75DFC001B0228F6D917
:10134000032053E0334A936B37490B409363DEE746
:10135000304A136833490B401360FFF74BFC05001C
:101360002C4B1B689B0106D5FFF744FC401B022851
:10137000F6D903203AE02749CB682C4A1340A26AE9
:10138000E06A0243206B02431343CB600A68802368
:101390005B0413430B60FFF72DFC04001D4B1B681F
:1013A0009B0106D4FFF726FC001B0228F6D9032078
:1013B0001CE000201AE0002018E0012B20D0154B83
:1013C000DA6880235B021340A16A8B421AD1F023B2
:1013D0009B031340E16A8B4216D1C0231B041A40C1
:1013E000236B9A4212D1002000E0012003B0F0BD2F
:1013F0000120FBE70120F9E70120F7E70020F5E7EE
:101400000120F3E70120F1E70120EFE70120EDE7FC
:10141000007000400010024088130000FFFEFFFF34
:10142000FFFBFFFFFFFFFFFEFFFFFFEFFFFF02FFDE
:1014300070B505000C00002800D1D1E06A4B1A6895
:10144000012313408B4219D32B689B0706D5674AAB
:10145000D368F0218B43A9680B43D3602B68DB076B
:101460007BD56B68022B20D0032B40D0012B44D0BE
:101470005E4A126892051DD4012099E05A4A136809
:1014800001218B4323431360FFF7B4FB0600564B47
:101490001A6801231340A342D6D0FFF7ABFB801B91
:1014A000534A9042F3D9032082E0504A12689203D3
:1014B00000D497E04D49CA68032082431343CB60B0
:1014C000FFF798FB06006B68022B1CD0032B28D07B
:1014D000012B34D0454BDB680C221A423DD0FFF77C
:1014E00089FB801B424B9842F4D9032060E03F4ABD
:1014F00012689201DED401205AE03C4A1268520779
:10150000D8D4012054E0394BDA680C231340082B5F
:1015100023D0FFF76FFB801B354A9042F3D903209D
:1015200046E0324BDA680C2313400C2B15D0FFF742
:1015300061FB801B2E4B9842F3D9032038E02B4BE4
:10154000DA680C231340042B07D0FFF753FB801BF2
:10155000274B9842F3D903202AE0234B1A68012332
:101560001340A34225D82B685B0706D51F4AD368D2
:1015700020490B40E9680B43D3602B681B0707D554
:101580001A49CB681C4A13402A69D2001343CB6026
:10159000FFF768FC154BDA6812090F231340174A4E
:1015A000D35CD840164B1860164B1868FFF7DAFA70
:1015B00070BD0D4A136801218B4323431360FFF76D
:1015C00019FB0600084B1A6801231340A342CAD036
:1015D000FFF710FB801B064B9842F3D90320E7E787
:1015E0000120E5E70120E3E700200240001002406F
:1015F00088130000FFF8FFFFFFC7FFFF182E000849
:101600000000002008000020014B18687047C04609
:101610000000002010B5FFF7F7FF044BDA68120A4C
:1016200007231340024AD35CD84010BD001002408B
:10163000102E000810B5FFF7E7FF044BDA68D20A56
:1016400007231340024AD35CD84010BD001002406B
:10165000102E000870B5040003689B064ED55B4B46
:101660009B6BDB0074D4594A916B80235B050B4361
:1016700093630126564B1B68DB056BD5534B1B68E8
:1016800062685340C02189030B4205D0C0239B02EE
:1016900011001940994271D04C4B196DC0239B0227
:1016A00008001840194215D01A40824212D023680F
:1016B0009B060FD5454B1A6D464911401D6D802084
:1016C000000328431865186D434D284018651965B7
:1016D000D20559D423689B060ED56368C0229202B6
:1016E0001900114091425ED038490B6D6268C020EC
:1016F0008002024013430B65012E5ED023689B07D6
:1017000006D5324AD36C0C218B43A1680B43D364BA
:1017100023685B0706D52D4AD36C30490B40E1683E
:101720000B43D36423681B0706D5284AD36C2C4986
:101730000B4021690B43D36423681B0643D5234A1E
:10174000D36C28490B4061690B43D36400203BE014
:1017500000268FE71E4A116880235B000B4313604D
:10176000FFF748FA05001A4B1B68DB0586D4FFF724
:1017700041FA401B6428F6D9032025E0134B1B686F
:101780009B0389D501201FE0FFF734FA05000F4BBA
:101790001B6D9B059ED4FFF72DFA401B124B984200
:1017A000F5D9032010E009490A6810480240C0201A
:1017B0008003034013430B6096E7044A936B0C4984
:1017C0000B4093639AE7002070BDC04600100240B2
:1017D00000700040FFFFFCFFFFFFF7FFFFF3FFFF7C
:1017E000FFCFFFFFFFFFF3FF88130000FFFFCFFFD6
:1017F000FFFFFFEFF0B5D6464F464646C0B582B074
:1018000006000D0090461F00FFF7F4F90A9B181A16
:101810008146B944FFF7EEF982462C4B1B685B0109
:101820001B0D4A465343019333689C682C40641B4C
:1018300063425C41444542D07B1CF5D0FFF7DAF9A6
:101840005346C01A484508D2019A002A00D04A4699
:10185000019B013B01939146E6E732685368E02122
:101860008B435360726882235B009A420CD0B26A49
:1018700080239B019A4216D051230122F254013B4E
:101880000022F25403201BE0B3688022120293422C
:1018900003D08022D2009342E9D1326813684021FC
:1018A0008B431360E3E73268136809490B40136008
:1018B0003268116880239B010B431360DCE7002032
:1018C00002B0E0BCBA46B146A846F0BD0000002018
:1018D000FFDFFFFF70B584B004000D001600174B4A
:1018E00018681749FEF7FEFB43011B1A9B001818E6
:1018F000C0000390626882235B009A420BD0039B76
:10190000002B17D0039B013B039323689B681B06A6
:10191000F5D400200FE000962B000022802120004B
:10192000FFF768FF002806D0636D2022134363652C
:10193000032000E0002004B070BDC046000000207D
:1019400000366E0170B5041E59D0436A002B07D1D2
:1019500042680533FF339A4205D00023C36102E099
:101960000023036143610023A3625133E35C002B36
:101970003ED051220221A154206803684025AB4388
:1019800003606368822040000340A06884252D0224
:1019900028400343E06880252D0128400343206947
:1019A00001400B436169012001400B43A16980257F
:1019B000AD0029400B43E569382129400B43256AD6
:1019C000802129400B43A16A8025AD01294025686B
:1019D0000B432B60618B04230B40656A1021294067
:1019E00025680B436B6000236365A054002070BD25
:1019F00050330022E2542000FEF736FEB9E7012002
:101A0000F5E7F0B585B00400009101921E000A9D33
:101A10005023C35C012B00D110E150230122C2549A
:101A2000FFF7E8F807005123E35CD9B26268012BA5
:101A30000BD082235B009A4200D0EDE0A368002B1C
:101A400000D0EFE0042900D0EEE0009B002B00D195
:101A5000ECE0019B002B00D1EAE0002E00D1E9E090
:101A60005123E35C042B02D051230522E2540023CE
:101A70006365019AA263E687A687009A2263E686D9
:101A8000A6862364636423681A68520603D41A681E
:101A900040210A431A60E26880231B019A4211D058
:101AA0006368002B01D0012E0AD1226B23681278C3
:101AB0001A73236B01332363E38E013B9BB2E386EE
:101AC00001266AE06368002B01D0012E0AD1226B47
:101AD00023681288DA60236B02332363E38E013BB1
:101AE0009BB2E386012619E022689368DB070ED5D6
:101AF000E38F9BB2002B0AD0D268A36B1A80A36B32
:101B00000233A363E38F013B9BB2E3870126FFF718
:101B100071F8C01BA84201D36B1C1DD1E38E9BB290
:101B2000002B03D1E38F9BB2002B59D0226893681E
:101B30009B07D9D5E38E9BB2002BD5D0012ED3D1F4
:101B4000236B1B88D360236B02332363E38E013B3B
:101B50009BB2E3860026C7E751230122E25403200B
:101B60005BE022689368DB070ED5E38F9BB2002B06
:101B70000AD0D268A36B1A70A36B0133A363E38FFF
:101B8000013B9BB2E3870126FFF734F8C01BA84254
:101B900001D36B1C1FD1002D1DD0E38E9BB2002BF7
:101BA00003D1E38F9BB2002B1AD0226893689B0766
:101BB000D7D5E38E9BB2002BD3D0012ED1D1236B8E
:101BC0001B781373236B01332363E38E013B9BB2BA
:101BD000E3860026C5E751230122E25403201CE0DE
:101BE0003A0029002000FFF775FE002810D1A368F5
:101BF000002B06D103932368DA6803929B68039352
:101C0000039B636D002B17D151330122E25404E092
:101C100020236365012000E0022050230022E254CB
:101C200005B0F0BD0220F8E70220F6E70120F4E756
:101C30000120F2E70120F0E70120EEE70220EFE7C4
:101C400010B5EFF3108C012282F3108801680B6845
:101C5000124C23400B608CF31088EFF3108C82F34E
:101C6000108801688B6893438B608CF31088036E37
:101C7000012B06D080232022C250002303668366F6
:101C800010BDEFF3108183F31088026813683234BB
:101C9000FF34A343136081F31088EBE7DFFEFFFFFF
:101CA000D0B5040083680269134342691343C269D3
:101CB000134301680A688548024013430B60226899
:101CC000536883490B40E1680B435360A169226864
:101CD000804B9A4201D0236A194393687E4803409F
:101CE0000B43936022687D4B9A4212D0794B9A4203
:101CF00020D0102377498A4242D0E0698022120224
:101D0000904279D0082B00D9DAE09B00744AD3586E
:101D10009F46744BD96C0C230B40082B22D005D85E
:101D2000002B21D0042BE5D01023E3E70C2B1DD191
:101D3000043BDFE76B4BDB6CC02109010B408021CA
:101D400009018B4214D007D8002B13D08021C90081
:101D50008B4211D10423CDE7C02109018B420DD163
:101D60000823C7E70223C5E70023C3E71023C1E721
:101D70000223BFE70023BDE71023BBE71023B9E729
:101D8000042B34D00BD8002B10D0022B05D1554B8F
:101D90001B68DB062ED454480DE001206DE0082BB3
:101DA00002D18020000206E0012066E0FFF732FC4D
:101DB000002800D176E0626853009B18834200D966
:101DC00072E01303834200D270E0070E060250084F
:101DD0000021801979410023FEF7CCF9434BC2184A
:101DE000434B9A4264D82368D860002045E0FFF74F
:101DF00039F8DDE73F48DEE7082B5BD89B003E4A19
:101E0000D3589F46FFF706FC002855D04000616874
:101E10004B08C018FEF766F90200103A374B9A4299
:101E20004CD882B20F239A434008083B0340134327
:101E30002268D360002020E0FFF7FCFBE4E7294B99
:101E40001B68DB0604D42848E0E7FFF70BF8DBE764
:101E50002848DBE7FFF7DEFB002833D061684B083A
:101E60001818FEF73FF90200103A244B9A422BD87B
:101E700023680004000CD86000200023A366E366FA
:101E8000D0BDFFF7D7FBE7E7164B1B68DB0607D48F
:101E90001548E3E7FEF7E6FFDEE780200002DDE716
:101EA0001448DBE70020E8E70120E6E70120E4E74B
:101EB0000120E2E70120E0E70020DEE70120DCE787
:101EC0000120DAE70020D8E70120D6E7F369FFEF29
:101ED000FFCFFFFF00480040FFF4FFFF0044004039
:101EE000302E0008001002400024F40000FDFFFF27
:101EF000FFFC0F0000093D00542E0008EFFF00001A
:101F0000436ADB0706D5026853682C490B40816A97
:101F10000B435360436A9B0706D502685368284900
:101F20000B40C16A0B435360436A5B0706D50268E6
:101F3000536824490B40016B0B435360436A1B07F2
:101F400006D50268536820490B40416B0B43536030
:101F5000436ADB0606D5026893681C490B40816B17
:101F60000B439360436A9B0606D502689368184941
:101F70000B40C16B0B439360436A5B060BD5026851
:101F8000536814490B40016C0B435360026C80236F
:101F90005B039A420AD0436A1B0606D5026853685F
:101FA0000D490B40816C0B435360704702685368C6
:101FB0000A490B40416C0B435360ECE7FFFFFDFF08
:101FC000FFFFFEFFFFFFFBFFFF7FFFFFFFEFFFFFB6
:101FD000FFDFFFFFFFFFEFFFFFFFF7FFFFFF9FFFA9
:101FE000F8B5CE46474680B506000D001700994665
:101FF000089B98463368DC692C40641B63425C4153
:10200000BC422FD143460133F4D0FEF7F3FD4B46DB
:10201000C01A40452BD84346002B2AD033681A6893
:102020005207E7D5DA69120710D4DA691205E1D54B
:10203000802212011A623000FFF702FE8423202260
:10204000F2500C3B0022F25403200CE008241C62E6
:102050003000FFF7F5FD8423F4500C3B0022F254CE
:10206000012000E00020C0BCB946B046F8BD032006
:10207000F9E70320F7E7F0B5C64600B582B00400E3
:102080000D0090461E00C36F202B62D1002965D041
:10209000002A65D0826880235B019A4204D10369DB
:1020A000002B01D1CB075DD484230022E250633B97
:1020B000E367FEF79FFD070050234246E2520233DA
:1020C000E252A26880235B019A4202D00023984624
:1020D00017E02369002B29D00023984611E0202324
:1020E000E367032036E043461B882268DB05DB0DEF
:1020F000936202239C46E0445223E25A013A92B290
:10210000E2525223E35A9BB2002B12D000963B00BE
:10211000002280212000FFF763FF0028DFD1002D7F
:10212000E1D02A7823689A620135E5E7A8460025C0
:10213000E7E700963B00002240212000FFF750FF18
:10214000002802D12023E36704E02023E367032073
:1021500000E0022002B080BCB846F0BD0120F9E7E3
:102160000120F7E70120F5E730B583B004008423B0
:102170000022C250FEF73EFD050023681B681B07C6
:102180000FD423681B685B0729D42023E3678022D0
:10219000A350002323666366083AA354002003B0CB
:1021A00030BD8021224B00930300002289032000D0
:1021B000FFF716FF0028E4D0EFF31081012383F32B
:1021C00010882268136880208343136081F310888D
:1021D0002023E36758330022E2547D38DFE7802173
:1021E000134B00932B000022C9032000FFF7F8FED9
:1021F0000028CAD0EFF31080012282F310882168F2
:102200000B680C4D2B400B6080F31088EFF31080AF
:1022100082F3108821688B6893438B6080F3108869
:1022200080231F32E250083B0022E2540320B6E72D
:10223000FFFFFF01DFFEFFFF10B5041E2ED0C36FAE
:10224000002B21D02423E3672268136801218B43EC
:1022500013602000FFF724FD012814D0636A002BCF
:1022600018D1226853680E490B4053602268936866
:102270002A218B4393602268136829390B4313602A
:102280002000FFF771FF10BD78330022C254FEF723
:1022900017FAD7E72000FFF733FEE2E70120F2E765
:1022A000FFB7FFFF0D488546FEF756FA0C480D496B
:1022B0000D4A002302E0D458C4500433C4188C42A1
:1022C000F9D30A4A0A4C002301E013600432A24207
:1022D000FBD300F039F8FEF71DF9FEE700200020DF
:1022E000000000205C000020BC2E00085C000020E4
:1022F000A8020020FEE700000EB400B50B499CB018
:102300001DAB02900690079104910948094904CB3E
:102310000591006802A9019300F092F90022029B46
:102320001A701CB008BC03B01847C046FFFFFF7FFF
:102330000C0000200802FFFF03008218934200D126
:10234000704719700133F9E770B500260C4C0D4D3C
:10235000641BA410A64209D1002600F011FD0A4C0E
:102360000A4D641BA410A64205D170BDB300EB5802
:1023700098470136EEE7B300EB5898470136F2E78D
:10238000B42E0008B42E0008B82E0008B42E0008A1
:102390007047704770B505000C1E10D0043C2368D0
:1023A000002B00DAE418280000F0DAF81D4A136860
:1023B000002B05D163601460280000F0D9F870BDCF
:1023C000A34208D9206821188B42F3D119685B68B1
:1023D00009182160EEE71A005B68002B01D0A342C8
:1023E000F9D911685018A0420BD12068091850186B
:1023F00011608342E0D118685B6841181160536036
:10240000DAE7A04202D90C232B60D5E72068211817
:102410008B4203D119685B680918216063605460BE
:10242000CAE7C046A002002070B50F4E0D0031680B
:102430000400002902D100F0A5FB30602900200033
:1024400000F0A0FB431C03D101256D42280070BDA4
:102450000323C51C9D43A842F8D0291A200000F090
:1024600091FB0130F2D1EFE79C0200200323F7B586
:10247000CD1C9D43083506000C2D34D20C25A942F5
:1024800033D8300000F06CF8344F3B681C00002C4F
:102490002FD129003000FFF7C7FF0400431C58D19B
:1024A0003C682100002949D1002C4CD02368300021
:1024B000E318019300F066FB019B834243D123683C
:1024C0003000ED1A2900FFF7AFFF01303BD0236841
:1024D0005B1923603B68002B3DD05A68A24230D183
:1024E00000225A6012E0002DC9DA0C23336000206C
:1024F000FEBD2168491B1ED40B2917D9621925601E
:10250000A34211D13A60636811605360300000F05B
:102510002FF8200007220B30231D9043C21A984247
:10252000E6D01B1AA350E3E75A60ECE76268A342C7
:10253000D7D13A60EAE723006468A8E70C0049684D
:10254000B0E71300C7E70C233000336000F010F849
:10255000CDE70560DAE75B60FFDEC046A002002041
:1025600010B50248FFF714FF10BDC04698020020C6
:1025700010B50248FFF70DFF10BDC04698020020BD
:10258000F0B58E6885B01F000C000B6802900392B6
:10259000BE4230D80C21625E9021C9000A4228D088
:1025A000032021695B1A0193636943430198DD0F9E
:1025B000ED187B1C1B186D10AB4200D91D00520595
:1025C00028D529000298FFF751FF061E2CD0019A4A
:1025D000216900F0F4FAA289184B1A4080231343B2
:1025E000A381019B2661F61826603E006561ED1A05
:1025F000A560BE4200D93E0032000399206800F079
:10260000ADFA0020A3689B1BA36023689B1923607D
:1026100005B0F0BD2A00029800F0DAFA061EE0D1FB
:1026200021690298FFF7B6FE0C230120029A40426E
:102630001360A28934331343A381E9E77FFBFFFFD3
:10264000F0B5A1B003901D008B890F0016001B068A
:1026500011D50B69002B0ED14021FFF707FF386021
:102660003861002805D10C23039A136001204042F1
:10267000CFE040237B61002308AC636120336376A5
:102680001033A376079535002B78002B01D0252B2E
:1026900048D1AB1B0593B5420BD0320039000398EB
:1026A000FFF76EFF013000D1AEE06369059A9B1819
:1026B00063612B78002B00D1A6E001220023524257
:1026C000626004A9543252186E1C2360E360A36058
:1026D0001370A365544B052218003178059300F060
:1026E00063FA751C00281FD12268D30604D5532332
:1026F00004A95B1820211970130704D5532304A9DA
:102700005B182B21197033782A2B16D03500002145
:102710000A20E3682A786E1C303A092A50D9002929
:1027200011D117E00135AFE7059B2268C01A0123DC
:10273000834013432E002360CCE7079B191D1B68C1
:102740000791002B01DB0B9304E05B42E360022363
:10275000134323602B782E2B0CD16B782A2B34D18A
:10276000079B02351A1D1B680792002B01DA012313
:102770005B4209932D4E03223000297800F014FAB1
:10278000002806D04023801B834022680135134374
:1027900023602978062226486E1C217600F004FA70
:1027A000002838D0234B002B22D10722079B073368
:1027B0009343083307936369049A9B18636162E744
:1027C0004343350001219B18A4E700230A20190088
:1027D000013563602A786E1C303A092A03D9002B30
:1027E000C8D00991C6E74143350001238918F1E7B4
:1027F00007AA009221003A000F4B039800E000BFA7
:102800000490049B0133D6D1BB890D985B0600D59B
:102810002CE721B0F0BD07AA009221003A00064B38
:10282000039800F07BF8EBE7782E00087E2E000876
:10283000822E00080000000081250008F7B5160070
:1028400001938A680B690C000090934200DA130030
:102850002200336043321278002A01D00133336002
:1028600023689B0602D5336802333360226806234F
:1028700015001D401A4227D0230043331B785A1EEF
:1028800093412268920630D4220001990098089D55
:102890004332A847013025D0062223680025134083
:1028A000042B05D13368E568ED1AEB43DB171D40B7
:1028B000A3682269934201DD9B1AED180026B542F8
:1028C00020D1002010E00135E36832689B1AAB424A
:1028D000D2DD2200012301990098089F1932B847E0
:1028E0000130F0D101204042FEBD3020E1184331DB
:1028F000087021005A1C45310978A218433202336E
:102900001170C1E72200012301990098089F1A3233
:10291000B8470130E6D00136D1E70000F0B58BB002
:1029200006920A0043320793059004920A7E0C0037
:10293000109B782A09D8622A0BD8002A00D1CEE051
:1029400084490391582A00D19FE026004236327014
:1029500022E0100063381528F7D8FDF7B9FB160000
:102960001F00F6FFF6FFF6FFF6FF1F00F6FFF6FF6B
:10297000F6FFF6FFB3004F008F00F6FFF6FFC4002E
:10298000F6FF4F00F6FFF6FF930026001A68423666
:10299000111D1960136833700123B2E018680968CB
:1029A000021D0D061FD505681A606A4A0A2761686C
:1029B0000392002D38DA23002D2043331870A160D4
:1029C000002916DA0A276D420392049E2800390076
:1029D000FDF7C4FB039B013E5B5C33702B000500DD
:1029E0009F42F3D92DE005681A604906DDD52DB266
:1029F000DBE7042123688B432360E3E70D68196854
:102A0000081D18602E0601D50D6803E06D06FBD584
:102A10000D68ADB24F4B0A2703936F2A00D1023FD6
:102A20002300002243331A706368A360002BCCDBC1
:102A3000042122688A432260002DC6D1049E002B07
:102A4000C3D1082F09D12368DB0706D56268236943
:102A50009A4202DC3023013E3370049B9B1B2361AE
:102A6000079B210000930598069B09AAFFF7E6FE45
:102A700001304BD1012040420BB0F0BD202209684B
:102A80000A432260782234490391210045310A70BB
:102A900019682268081D1860150601D50D6803E045
:102AA0005506FBD50D68ADB2D30702D520231343DD
:102AB0002360002D01D01027B2E720222368934322
:102AC0002360F8E71A680D68101D496918601368DB
:102AD0002E0601D5196002E06D06FBD51980002392
:102AE000049E2361BCE71A68111D19601668002155
:102AF0003000626800F058F8002801D0801B606048
:102B0000636823610023049A1370A9E732002369E4
:102B100006990598079DA8470130ABD023689B070D
:102B200015D4099BE0689842A6DA1800A4E72200B1
:102B3000012306990598079E1932B047013099D0B4
:102B40000135E368099A9B1AAB42F0DCE9E70025FE
:102B5000F7E7C046892E00089A2E000810B5884273
:102B600006D800239A4208D0CC5CC4540133F9E75C
:102B70008B189842F5D2013A00D210BD8B5C835479
:102B8000F9E70000002370B5064D040008002B6033
:102B900000F056F8431C03D12B68002B00D02360B3
:102BA00070BDC04694020020C9B28218904201D183
:102BB0000020704703788B42FBD00130F6E70023FA
:102BC00010B59A4200D110BDCC5CC4540133F8E773
:102BD000F7B506000C001500002905D11100FFF71C
:102BE00045FC04002000FEBD002A03D1FFF7D2FB04
:102BF0000024F7E700F01BF80700854202D84308DD
:102C0000AB42EFD329003000FFF730FC01900028E1
:102C1000EED02A00BD4200D93A0021000198FFF70A
:102C2000CEFF21003000FFF7B5FB019CDAE70B1F58
:102C30001B68181F002B01DA0B58C01870470000E2
:102C4000044A03001068002802D0C31813607047BC
:102C50000148FAE7A4020020A8020020F7B5040CFE
:102C60000D0091B20F0061438C460600019383B2C0
:102C7000100C5F43444358433B0C60441B1899427B
:102C800002D9802149026418019955437143180CF7
:102C900004191B04BFB24919D819091903B0F0BDB2
:102CA000F0B506000F0015001C0085B08B4263D8FC
:102CB00001D1824260D821002800FDF793FA390043
:102CC00000903000FDF78EFA009B21001B1A1A00BD
:102CD00028000393FDF77AFA00900191B94245D894
:102CE00001D1B04242D8009B019C01200021039AEF
:102CF000F61AA741FDF76AFA04000D00039B002BAA
:102D00002BD0019B009ADB0750081843019B590800
:102D1000039B9C46B9422CD801D1B04229D832003D
:102D20003B00121A8B41012692185B410027B6180E
:102D30005F4101235B429C446346002BEAD1300093
:102D40003900039AFDF736FA039AA4197D4106006B
:102D50000F00FDF73BFA241A8D410A9B002B01D08E
:102D60001E605F602000290005B0F0BD0024002532
:102D7000C4E7B6197F41DCE700240025EDE7000039
:102D8000F8B5C046F8BC08BC9E467047F8B5C046CA
:082D9000F8BC08BC9E46704728
:102D9800454D5054594649464F0D0A004441544147
:102DA8004649464F0D0A000046554C4C4649464F89
:102DB8000D0A00004552524F524649464F0D0A002F
:102DC800696E76616C69640D0A00000076616C6951
:102DD800640D0A002D2D2D2D2D2D2D2D2D2D0D0A97
:102DE8000000000025750D0A00000000BBBBBBBB3E
:102DF800BB0000006E52463234000000030406088F
:102E08000C1018203000000000000000010203042C
:102E18000000000000000000010203040607080982
:102E28000A0B0C0D0E0F1000541E0008821E00081D
:102E3800881E0008C01E0008941E0008C01E000856
:102E4800C01E0008C01E00089A1E0008041E0008C4
:102E5800381E00083E1E0008B41E00084A1E00085E
:102E6800B41E0008B41E0008B41E00080C1E00089A
:102E7800232D302B2000686C4C006566674546475B
:102E880000303132333435363738394142434445DE
:102E9800460030313233343536373839616263644D
:042EA800656600005B
:082EAC00F4FDFF7F01000000AE
:042EB40061020008AF
:042EB80039020008D3
:102EBC0000002000010000000400000010000020B1
:102ECC00000000005C010020C40100202C02002046
:102EDC0000000000000000000000000000000000E6
:102EEC0000000000000000000000000000000000D6
:102EFC0000000000000000000000000000000000C6
:0C2F0C00000000000000000000000000B9
:04000005080022A528
:00000001FF
